:020000040800F2
:1000000010070020310200086D0200086F0200088E
:100010007102000873020008750200080000000069
:10002000000000000000000000000000770200084F
:1000300079020008000000007B0200084916000851
:100040007F0200087F0200087F0200087F0200088C
:100050007F0200087F020008CD050008F1050008B6
:1000600015060008390600087F0200087F02000814
:100070007F0200087F0200087F0200087F0200085C
:100080007F0200087F0200087F0200087F0200084C
:100090007F0200087F0200087F0200085D0600085A
:1000A0007F0200087F0200087F0200087F0200082C
:1000B0007F0200087F0200087F0200087F0200081C
:1000C0007F0200087F0200087F0200087F0200080C
:1000D0007F0200087F0200087F0200087F020008FC
:1000E0007F020008251400087F0200087F02000834
:1000F0007F0200087F0200087F0200087F020008DC
:100100007F0200087F0200087F0200087F020008CB
:100110007F0200087F0200087F0200087F020008BB
:100120007F0200087F0200087F0200087F020008AB
:100130007F0200087F0200087F0200087F0200089B
:100140007F0200087F0200087F0200087F0200088B
:100150007F0200087F0200087F0200087F0200087B
:100160007F0200087F0200087F0200087F0200086B
:100170007F0200087F0200087F02000800000000E4
:100180007F0200087F02000800F002F800F041F84A
:100190000AA090E8000C82448344AAF10107DA45E2
:1001A00001D100F036F8AFF2090EBAE80F0013F0F3
:1001B000010F18BFFB1A43F001031847C01D0000D0
:1001C000E01D0000103A24BF78C878C1FAD8520761
:1001D00024BF30C830C144BF04680C6070470000C1
:1001E0000023002400250026103A28BF78C1FBD840
:1001F000520728BF30C148BF0B607047642900F028
:100200006D80002070471FB501F08EFE1FBD10B538
:1002100010BD00F0A0F91146FFF7F5FF01F020FE38
:1002200000F0BEF903B4FFF7F2FF03BC00F0C6F91B
:1002300016481749174B99423CBF50F8042B41F818
:10024000042BF8D314494FF000028B4238BF43F817
:10025000042BFAD3DFF84400016841F47001016017
:10026000BFF34F8FBFF36F8F0D480047FEE7FEE7E8
:10027000FEE7FEE7FEE7FEE7FEE7FEE7FEE7FEE756
:1002800008480949094A0A4B704700009C1F0008AA
:1002900000000020980000201007002088ED00E0FA
:1002A0008901000810010020100700201003002021
:1002B000100300200FB41CB5074B06AA7B44694607
:1002C0000090059800F02FF90020694600F03EF9F3
:1002D0001CBC5DF814FB00008D0200002DE9F0410C
:1002E0000646002410687529314616A510D0AFF3D4
:1002F0000080002802DA404213A507E031688A072F
:1003000001D512A502E0490704D511A5012401E099
:10031000AFF3008000210A2206F1240709E0B0FBB8
:10032000F2FCB0FBF2F302FB1C00303078541846AC
:10033000491C0028F3D123462A463046BDE8F04147
:1003400000F092B8000000002D0000002B0000001B
:10035000200000002DE9F0474FF0000A89460446CE
:10036000C0F820A02046E1688847002876D02528DC
:1003700006D0D4E901219047206A401C2062F1E7B1
:10038000E168204600258847C4F81CA006460027DF
:10039000C4F818A02A2E09D0304601F09CFA38B3D0
:1003A00004EB8708303EC8F8186019E059F8041BC0
:1003B000204604EB87029161E1688847012F0646D9
:1003C00018D1E069002820DA25F020051DE0D8F8D2
:1003D000180000EB800006EB40003038C8F8180029
:1003E0002046E1688847064601F075FA0028EED1FC
:1003F000012F0AD02E2E08D12046E16888477F1CA5
:100400000646022F45F02005C4DBA069002803DA68
:10041000404245F00105A061E80701D025F0100534
:10042000B6B1A6F14100192802D8203645F400657E
:100430004A463146204625604D46FFF7DFFE58B15B
:10044000012806D0ED1D25F0070000F1080989E715
:1004500004E005F1040985E730468AE7206ABDE833
:10046000F0877047704770472DE9F0470D46994671
:100470009246044600F124080168880604D5E06924
:1004800021F01001216000E00120A84201DD471B9E
:1004900000E00027A1697A1902EB0900081AA0619F
:1004A0002078C00602D42046AFF30080002608E082
:1004B000D4E901211AF806009047206A401C761CF6
:1004C00020624E45F4DB2078C0060AD52046AFF303
:1004D000008006E0D4E9012130209047206A401CCA
:1004E0002062381EA7F10107F4DC07E0D4E90121FE
:1004F00018F805009047206A401C2062281EA5F1CC
:100500000105F3DC2046AFF300802078000602D519
:100510000220BDE8F0870120FBE7000001694A1CCA
:1005200002610878704700B58FB0CDE90131002134
:10053000059105497944CDE9031011466846FFF756
:1005400009FF0FB000BD0000E5FFFFFF0A6802F8D9
:10055000010B0A607047754600F02CF8AE460500A6
:100560006946534620F00700854618B020B5FFF7CE
:1005700087FEBDE820404FF000064FF000074FF027
:1005800000084FF0000B21F00701AC46ACE8C009B1
:10059000ACE8C009ACE8C009ACE8C0098D467047BA
:1005A00010B50446AFF300802046BDE81040FFF7C9
:1005B00039BE000000487047B000002001491820F3
:1005C000ABBEFEE7260002007047000010B50748EA
:1005D000006800F0010038B101F0CEF9034800686E
:1005E00040F001000149086010BD00001404014002
:1005F00010B50748006800F0020038B101F0DAFADF
:100600000348006840F002000149086010BD000086
:100610001404014010B50748006800F0040038B128
:1006200001F0D4FA0348006840F004000149086072
:1006300010BD00001404014010B50748006800F028
:10064000080038B101F0CEFA0348006840F0080015
:100650000149086010BD00001404014010B50748AE
:10066000006800F0200038B101F052FA0348006839
:1006700040F020000149086010BD00001404014052
:100680000348406980F48070014948617047000068
:1006900000100048002000BF0B49096801F0040168
:1006A0000029F9D1002006E0002207490C3141F869
:1006B0002020411CC8B20F28F6DD0349096841F02B
:1006C0000401014A11607047082400402F48806DE2
:1006D00000F0805028B92D48806D40F080502B49A3
:1006E00088652A48806D2A48006800F4807060B9E7
:1006F0002748006840F480702549086000BF2448FE
:10070000006800F480700028F9D02048903000681C
:1007100020F005001D49C1F890000846D0F890006F
:1007200040F48030C1F890000846D0F8900020F4E2
:100730008030C1F8900007E014489030006840F025
:1007400001001249C1F8900010489030006800F094
:1007500002000028F0D00D489030006820F440706E
:100760000A49C1F890000846D0F8900040F4807023
:10077000C1F890000846806D20F0805088650846DA
:10078000806D40F4007088657047000000100240E2
:10079000007000403E48006820F001003C490860BD
:1007A000081D006840F47010091D086008460068C4
:1007B00020F0707008600846006820F4403008603F
:1007C0000846006820F4604008600846006840F46D
:1007D000804008600846006840F0700008600846E5
:1007E000006820F4E05008600846006840F4A0501B
:1007F00008600846006820F070000860084600683D
:1008000040F04000086000BF21480830006800F058
:1008100020000028F8D01E48006820F01C001C4969
:1008200008600846006840F00C0008600846006850
:1008300020F0600008600846006840F04000086052
:100840000846006820F0800008600846006820F034
:10085000020008600846006840F00100086000BF20
:100860000B480830006800F001000028F8D000BFF5
:1008700007480830006800F010000028F8D004484D
:100880000830006840F004000149083108607047F2
:1008900000240040F0B50C46154600210026002239
:1008A0000778332F48D00FDCA7F12007132F50D241
:1008B000DFE807F01F4F4F4F4F394F4F24262134A9
:1008C0004F314F373F404100392F3BD008DCA7F173
:1008D0003407052F3DD2DFE807F0303132333400E2
:1008E000642F0FD06D2F10D06E2F11D0FF2F30D16D
:1008F0001CE0002146E04AF2DD0143E0282141E00E
:1009000011213FE04FF473413CE04BF2102139E0FC
:1009100042F2102136E04FF4204133E04AF2140154
:1009200030E0C0212EE04FF433412BE04FF6DD7173
:1009300028E000BF00BF00BF00BF00BF00BF00BF76
:1009400000BF00BF0778303FDFF864C03CF81710E5
:1009500018E007785B2F08DA0778402F05DD077865
:10096000413FDFF850C03CF8171007787B2F08DABA
:100970000778602F05DD0778613FDFF838C03CF865
:10098000171000BF00BF0CB141F002010DB141F0E2
:1009900020010C26002208E041FA06F707F00F07B5
:1009A0009F54371FFEB2571CFAB2042AF4DBF0BD85
:1009B000661F0008321F00082DE9F041044600259B
:1009C0000026002720E060783A2801D1012600E0C7
:1009D000002660782E2801D1012700E000270EB103
:1009E000012000E0002002460FB1012000E00020BD
:1009F00001462B46204600F0F1F8641C06B1641C49
:100A000007B1641C681CC5B2207808B1062DDADB7A
:100A1000BDE8F08100B500F007F8FFF757FEFFF7DB
:100A2000B9FEFFF737FE00BD5E48C06C40F00F0016
:100A30005C49C8644FF0904000685B4908404FF043
:100A40009041086008460068584908434FF09041BB
:100A500008600846006A40F03B4008620846406A69
:100A6000534908434FF090414862084680684E4918
:100A700008404FF090418860084680684B49084321
:100A80004FF0904188600846C068474908404FF0E1
:100A90009041C86047480068474908404549086098
:100AA00008460068454908434249086041482030EB
:100AB000006840F0BB103F49203108603D48406A63
:100AC0003F4908433B4948623A48083000683A4980
:100AD000084038490831086008460068374908432B
:100AE000344908310860081D00683349084031491D
:100AF0000C310860334800683349084031490860C8
:100B000008460068314908432E4908602D482030C6
:100B100000682F4908432B49203108602948406A62
:100B200040F00B01274841622648083000682649FA
:100B300008402449083108600846006823490843F2
:100B4000204908310860081D00681F4908401D49F8
:100B50000C3108601F48006880B21E4908600846D2
:100B600000681D4908431B4908600846406A40F078
:100B7000BB31184841621748083000686FF30F0016
:100B800014490831086008460068134908431149B0
:100B900008310860081D00686FF30F00091D086028
:100BA0007047000000100240FF0FC03F00A02A80E5
:100BB000BB0B00B000040048F0F0F3000A0A08AADA
:100BC000B000BBBB000800483F00FCFF80AA020049
:100BD00000B0BBBB000C00480000AAAAF8B505464F
:100BE0000E4617461C466B463A4631462846FFF7E6
:100BF00051FE00BFFE48006800F004000028F9D153
:100C0000062C7DD2DFE804F00398FCFBFAF9F848E3
:100C10000C300068F7490840F5490C310860F44889
:100C20000838C069F3490840F1490839C8610846E5
:100C3000406AF0490840EE49083948620846C06AEF
:100C4000EC490840EA490839C8629DF80000C0072D
:100C5000C00E9DF80010C1F3400140EAC1509DF85C
:100C60000010C1F3800140EA81509DF80010C1F3EB
:100C7000C00140EAC100DE490C3109680843DC4983
:100C80000C3108609DF80100C007C00E9DF80110EE
:100C9000C1F3400140EAC1509DF80110C1F3800149
:100CA00040EA81509DF80110C1F3C00140EAC10043
:100CB000CF490839C9690843CD490839C8619DF849
:100CC0000200C007C00E9DF80210C1F3400140EAC7
:100CD000C1509DF80210C1F3800140EA81509DF897
:100CE0000210C1F3C00140EAC100C1490839496A94
:100CF0000843BF49083948629DF80300C00700E077
:100D00002EE3C00E9DF80310C1F3400140EAC1502C
:100D10009DF80310C1F3800140EA81509DF8031053
:100D2000C1F3C00140EAC100B1490839C96A0843AA
:100D3000AF490839C86214E3AD480C30006843F28B
:100D400060018843AA490C310860A9480838C06985
:100D500043F260018843A6490839C8610846406AE1
:100D600043F260018843A249083948620846C06AD4
:100D700043F2600188439E490839C8629DF800002B
:100D8000C007400E9DF80010C1F3400140EA413019
:100D90009DF80010C1F3800140EA01309DF8001079
:100DA000C1F3C00140EA411091490C310968084380
:100DB0008F490C3108609DF80100C007400E9DF876
:100DC0000110C1F3400140EA41309DF80110C1F328
:100DD000800140EA01309DF80110C1F3C00140EAF2
:100DE000411083490839C969084381490839C861F4
:100DF0009DF80200C007400E03E028E27CE1CAE053
:100E000036E09DF80210C1F3400140EA41309DF800
:100E10000210C1F3800140EA01309DF80210C1F3D5
:100E2000C00140EA411072490839496A08437049D3
:100E3000083948629DF80300C007400E9DF8031072
:100E4000C1F3400140EA41309DF80310C1F3800135
:100E500040EA01309DF80310C1F3C00140EA41109F
:100E600063490839C96A084361490839C86278E2A8
:100E70005F480C300068604908405D490C310860EB
:100E80005B480838C0695C49084059490839C8615D
:100E90000846406A5849084055490839486208469A
:100EA000C06A5549084052490839C8629DF8000097
:100EB000C007000C9DF80010C1F3400140EA4170EA
:100EC0009DF80010C1F3800140EA01709DF8001008
:100ED000C1F3C00140EA813045490C31096808433B
:100EE00043490C3108609DF80100C007000C9DF8D3
:100EF0000110C1F3400140EA41709DF80110C1F3B7
:100F0000800140EA01709DF80110C1F3C00140EA80
:100F1000813037490839C969084335490839C861FA
:100F20009DF80200C007000C9DF80210C1F34001BB
:100F300040EA41709DF80210C1F3800140EA01705F
:100F40009DF80210C1F3C00140EA813028490839F8
:100F5000496A08432649083948629DF80300C007DA
:100F6000000C9DF80310C1F3400140EA41709DF868
:100F70000310C1F3800140EA01709DF80310C1F332
:100F8000C00140EA81301A490839C96A0843184942
:100F90000839C862E5E116480C30006820F040408E
:100FA00013490C31086012480838806920F00301A9
:100FB0000F4808388161C06920F040410C4808386A
:100FC000C161006A20F00301094808380162406AE3
:100FD00020F04041064808384162806A20F0030151
:100FE000034808388162C06A20F04041004805E0AB
:100FF00008240040E7FF3FFFFF3FFFCF0838C162F2
:10100000006B20F00301DC4801639DF80000C0077D
:101010009DF80010C1F3C00140EA8170D649143137
:1010200009680843D449143108609DF80000C0F3F2
:1010300080009DF80010C1F3400140EA4100CE4914
:1010400089690843CC4988619DF80100C0079DF873
:101050000110C1F3C00140EA8170C749C969084362
:10106000C549C8619DF80100C0F380009DF80110DA
:10107000C1F3400140EA4100BF49096A0843BE4943
:1010800008629DF80200C0079DF80210C1F3C0017C
:1010900040EA8170B849496A0843B74948629DF8F7
:1010A0000200C0F380009DF80210C1F3400140EA45
:1010B0004100B149896A0843AF4988629DF803003D
:1010C000C0079DF80310C1F3C00140EA8170AA492E
:1010D000C96A0843A849C8629DF80300C0F38000AC
:1010E0009DF80310C1F3400140EA4100A249096B99
:1010F0000843A149086334E19F481430006820F098
:1011000040709D49143108609B48806920F00C01B3
:1011100099488161C06920F040719748C161006AB7
:1011200020F00C0194480162406A20F0407192481E
:101130004162806A20F00C018F488162C06A20F011
:1011400040718D48C162006B20F00C018A48016338
:101150009DF80000C0F3400040069DF80010C1F368
:10116000800140EA016084491431096808438249DA
:10117000143108609DF80000C007000F9DF80010B2
:10118000C1F3C00140EA81007B49896908437A497B
:1011900088619DF80100C0F3400040069DF80110F1
:1011A000C1F3800140EA01607349C969084372498B
:1011B000C8619DF80100C007000F9DF80110C1F340
:1011C000C00140EA81006C49096A08436A49086223
:1011D0009DF80200C0F3400040069DF80210C1F3E4
:1011E000800140EA01606449496A084362494862F3
:1011F0009DF80200C007000F9DF80210C1F3C00166
:1012000040EA81005C49896A08435B4988629DF82D
:101210000300C0F3400040069DF80310C1F38001B5
:1012200040EA01605449C96A08435349C8629DF8BD
:101230000300C007000F9DF80310C1F3C00140EA8E
:1012400081004D49096B08434B49086389E04A48CE
:10125000143000684949084047491431086046483D
:10126000C069464908404449C8610846406A434944
:101270000840414948620846C06A404908403E4922
:10128000C8629DF80000C007800B9DF80010C1F3F4
:10129000400140EA01209DF80010C1F3800140EABE
:1012A00041209DF80010C1F3C00140EA816032493D
:1012B0001431096808433049143108609DF8010071
:1012C000C007800B9DF80110C1F3400140EA0120E6
:1012D0009DF80110C1F3800140EA41209DF8011002
:1012E000C1F3C00140EA81602349C969084322492A
:1012F000C8619DF80200C007800B9DF80210C1F381
:10130000400140EA01209DF80210C1F3800140EA4B
:1013100041209DF80210C1F3C00140EA81601649E6
:10132000496A0843144948629DF80300C007800BCE
:101330009DF80310C1F3400140EA01209DF803101D
:10134000C1F3800140EA41209DF80310C1F3C001C0
:1013500040EA81600849C96A08430749C86200E059
:1013600000BF00BF04480830006840F00400024994
:1013700008310860F8BD000000240040FFFCFDFBC0
:101380002548C06C40F012002349C8642348006817
:1013900020F03000214908600846006840F0100045
:1013A00008601E480830006820F030001B490831F2
:1013B00008600846006840F030000860081F0068B8
:1013C00020F00400091F086014480C30006820F069
:1013D000300012490C3108601148006820F4403098
:1013E0000F4908600846006840F4803008600846ED
:1013F000806820F4403088600846806840F44030BF
:1014000088600846406820F4807048600846C068DC
:1014100020F44030C86070470010024000040048CB
:101420000010004810B51348006800F4807070B1D7
:101430001048006820F480700E4908600E4800686B
:1014400040F480200C49086000F074FA10E009486C
:10145000006800F4007058B10648006820F400707D
:10146000044908600448006840F48020024908608C
:1014700010BD00000C280040140401400022024A64
:1014800002EB800211607047502800403048806DA8
:1014900000F0805038B92E48806D40F080502C49C3
:1014A00088650846806D2B48006800F4807060B93C
:1014B0002848006840F480702649086000BF25482D
:1014C000006800F480700028F9D02148903000684E
:1014D00020F005001E49C1F890000846D0F89000A1
:1014E00040F48030C1F890000846D0F8900020F415
:1014F0008030C1F8900007E015489030006840F057
:1015000001001349C1F8900011489030006800F0C4
:1015100002000028F0D00E489030006820F440709F
:101520000B49C1F890000846D0F8900040F4807054
:10153000C1F890000846D0F8900040F40040C1F88F
:1015400090000846806D20F080508865704700004C
:101550000010024000700040CA2002490860532079
:101560000860704724280040FF2001490860704748
:101570002428004070B504460D461646FFF786FF46
:10158000FFF7EAFF134800684FF0FF301149086089
:1015900000BF1048006800F040000028F9D0324633
:1015A0002946204600F03AF80A48006820F08000FA
:1015B0000849086000BF0748006800F020000028C4
:1015C000F9D0FFF7D1FF43F2F2210120FFF756FFD8
:1015D00070BD00000C28004030B503460E4C20685A
:1015E000C0F3015404EB8404C0F3034505EB440449
:1015F0001C60C0F3023404EB8404C0F3032505EB44
:1016000044040C6000F00F04C0F3021505EB8505DF
:1016100004EB4504146030BD0028004010B50404FC
:1016200044EA012444EA0203014C236010BD000097
:10163000002800400348006880F004000149086069
:1016400070470000140400481FB50020039002906A
:1016500001900E480068401C0C490860084600686C
:10166000FA2811D30020086001AA02A903A8FFF7F5
:10167000B3FF0198009006A10948DDE90232FEF7A8
:1016800019FE0748FFF798F91FBD00000000002071
:10169000252E32643A252E32643A252E326400001B
:1016A0009800002010B500204FF0E02108611D488F
:1016B000486100208861401E0121002804DB0A07E0
:1016C000130E194A135406E00A07140E174A00F0C5
:1016D0000F031B1FD45400BF4FF0FF3000280DDB59
:1016E00000BF00BF00F01F0201219140420992009B
:1016F00002F1E022C2F8001100BF00BF00BF4FF0AE
:10170000E020006920F002004FF0E0210861084667
:10171000006940F0040008610846006940F00100DB
:10172000086110BD7F38010000E400E018ED00E022
:101730005E49096821F007015C4A11601146096899
:1017400041F0020111605A49096841F48071584A18
:10175000116000BF5649096801F480610029F9D081
:1017600010205349496821F0F851514A51601146FF
:10177000496841EA006151601146096821F08071B1
:10178000116000BF4A49096801F00071B1F1007FA2
:10179000F8D04749C96821F00301454AD160114694
:1017A000C96841F00201D1601146C96821F4FE41C7
:1017B00041F4A051D1601146C96821F0700141F097
:1017C0001001D1601146C96821F0C061D160114695
:1017D000C96841F08071D1601146096841F080719B
:1017E000116000BF3249096801F000710029F9D089
:1017F0002F49896821F003012D4A916011468968BB
:1018000041F00301916000BF2949896801F00C0192
:101810000C29F9D12649896821F0F001244A916008
:101820001146896821F4E06191601146896821F4CC
:10183000605191601146096821F08061116000BF1C
:101840001B49096801F08061B1F1806FF8D0184937
:10185000096921F4FE41164A11611146096941F4F2
:10186000C05111611146096941F4003111611146FD
:10187000096941F4803111611146096841F08061C4
:10188000116000BF0A49096801F080610029F9D0A0
:1018900007498831096821F44001054AC2F88810D7
:1018A0001146096E41F40011116670470020024094
:1018B0000010024000280DDB00BF00BF00F01F0237
:1018C000012191404209920002F1E022C2F8001188
:1018D00000BF00BF704730380A2801D2012070478E
:1018E000002070473EB504466A4601A902A8FFF7EA
:1018F00073FE00982044009000983B2805D900987A
:101900003C3800900198401C019001983B2805D973
:1019100001983C3801900298401C029002981728C8
:1019200002D9029817380290DDE90021029800F0F0
:10193000AFFA3EBD10B50E48006808B9FFF77AFE51
:10194000FEF79EFE0A4800681F280BD208490A6865
:101950000968491C064B1960064951F82200FFF737
:10196000C1FF04E0002002490860FFF763FE10BDDC
:10197000180000201C0000202DE9FE435848006894
:10198000401CA8BB57480468574805685748066874
:101990000A20B6FBF0F100FB11600A21B6FBF1F161
:1019A00040EA01170A20B5FBF0F100FB11500A21B3
:1019B000B5FBF1F140EA01180A20B4FBF0F100FB9D
:1019C00011400A21B4FBF1F140EA01193A464146BF
:1019D0004846FFF7CFFD00BF4FF0E020006940F020
:1019E00002004FF0E021086100203D49086074E0EA
:1019F000FFE73B48006818BB4FF0E020006920F08B
:101A000002004FF0E02108610020384908603649A3
:101A1000086034490860354800680090324803681F
:101A2000084633A102683648FEF744FC3448FEF706
:101A3000C3FF0220334908600120294908604CE0B7
:101A40006A4601A902A8FFF7C7FD28480068009967
:101A5000084426490860084600683B2808D908461B
:101A600000683C38086020480068401C1E49086037
:101A70001D480068019908441B4908600846006831
:101A80003B2808D9084600683C38086015480068BB
:101A9000401C144908601348006802990844114921
:101AA000086008460068172803D9084600681838F7
:101AB00008600E4802680C4801680A48006800F097
:101AC000E7F94FF0E020006940F002004FF0E0211C
:101AD000086100200249086000BF00F015B800004E
:101AE000040000200C000020100000201400002042
:101AF000252E32643A252E32643A252E32640000B7
:101B0000980000200800002006BCBDE8F883000013
:101B100008B51E48006820B101280DD0022821D147
:101B200015E01B4801680068401E194A106011B991
:101B300017201146086015E0164801680068401E2D
:101B4000144A106011B93B20114608600AE012489F
:101B500001680068401E104A106011B93B20114610
:101B6000086000BF00BF0D48006868B10A480068FF
:101B7000009008480368064809A102680C48FEF76F
:101B800099FB0B48FEF718FF08BD00000800002075
:101B90000C00002010000020140000200400002091
:101BA000252E32643A252E32643A252E3264000006
:101BB0009800002004480068401E0349086000287F
:101BC00001DA02200860704708000020044800681D
:101BD000401C03490860022801DD002008607047AE
:101BE0000800002008B51C48006820B101280CD06E
:101BF00002281ED113E019480068401C17490860EC
:101C0000182801D30020086013E015480068401C24
:101C1000134908603C2801D30020086009E01148FE
:101C20000068401C0F4908603C2801D30020086070
:101C300000BF00BF0C48006868B10A480068009007
:101C400007480368054809A102680C48FEF732FB03
:101C50000A48FEF7B1FE08BD080000200C00002075
:101C6000100000201400002004000020252E326403
:101C70003A252E32643A252E326400009800002066
:101C8000292000280DDB00BF00BF00F01F0201214A
:101C900091404209920002F1E022C2F8001100BF17
:101CA00000BF00BF0748006840F480200549086075
:101CB00004480838006840F4802002490839086068
:101CC000704700000804014010B56248C06C40F045
:101CD00001006049C8644FF09040006820F00300A4
:101CE0004FF0904108600846006820F00C00086042
:101CF0000846006820F0300008600846006820F0C0
:101D0000C00008600846006820F44060086008468B
:101D1000C06820F00300C8600846C06820F00C00CE
:101D2000C8600846C06840F00800C8600846C0683F
:101D300020F03000C8600846C06840F02000C8604D
:101D40000846C06820F0C000C8600846C06840F07F
:101D50008000C8600846C06820F44060C86008463B
:101D6000C06840F40060C8600620FFF7A3FD0720AC
:101D7000FFF7A0FD0820FFF79DFD0920FFF79AFD62
:101D80001720FFF797FD3348006E40F001003149FE
:101D900008663148806820F007002F4988600846AF
:101DA000806888600846806820F070008860084677
:101DB000806888600846806820F4E0608860084693
:101DC000806888600846806820F4E04088600846A3
:101DD000806888600846C06820F070011E48C160B5
:101DE000C0681D49C8601D48006840F001001B49DB
:101DF00008600846006840F0020008600846006875
:101E000040F0040008600846006840F008000860E0
:101E10000846006840F02000086010480838006854
:101E200040F001000D49083908600846006840F09C
:101E3000020008600846006840F004000860084698
:101E4000006840F0080008600846006840F0200084
:101E5000086010BD0010024000000140080401406D
:101E6000FFF766FCFFF78CFAFEF7D4FDFFF71AFCCC
:101E7000FFF72AFFFFF704FF02A0FEF79DFD00BF5A
:101E8000FEE7000030303A30303A303000000000D9
:101E9000F0B50A26B0FBF6F706FB17060A27B0FBDB
:101EA000F7F746EA07130A26B1FBF6F706FB171603
:101EB0000A27B1FBF7F746EA07140A26B2FBF6F742
:101EC00006FB17260A27B2FBF7F746EA0715CA26CC
:101ED000144F3E6053263E60124E1C3E366826F478
:101EE000CC56104F1C3F3E6000BF0E4E183E366869
:101EF00006F00106002EF8D04FF0004646EA0346F1
:101F000046EA04262E43074F083F3E60054E1C3E1E
:101F1000366846F4CC56034F1C3F3E60FF26014F07
:101F20003E60F0BD242800404FF04070E1EE100A02
:101F3000704700FE1467001D1447009D009C003F81
:101F400000FA1400005341980019485A095A005FDA
:101F500000FC015F01FC00AF1404005BC018815A53
:101F6000C9005800C005005F004200F5006700EAA4
:101F700000AF00BF004600FF00EF00009C1F0008FC
:101F80000000002098000000C40100083420000870
:101F90009800002078060000E00100080000000022
:101FA000FFFFFFFF00000000000000000000000035
:101FB000000000000000000001000000010000001F
:101FC000010000000100000001000000010000000D
:101FD00001000000030000000300000001000000F9
:101FE00003000000010000000300000003000000E7
:101FF00003000000010000000100000001000000DB
:1020000001000000030000000300000001000000C8
:1020100001000000010000000100000003000000BA
:1020200001000000010000000100000003000000AA
:0420300003000000A9
:040000050800018965
:00000001FF
